{
  "contractName": "DLibrary",
  "abi": [
    {
      "anonymous": false,
      "inputs": [
        {
          "indexed": false,
          "internalType": "uint256",
          "name": "bookID",
          "type": "uint256"
        },
        {
          "indexed": false,
          "internalType": "string",
          "name": "name",
          "type": "string"
        },
        {
          "indexed": false,
          "internalType": "string",
          "name": "author",
          "type": "string"
        },
        {
          "indexed": false,
          "internalType": "address payable",
          "name": "uploader",
          "type": "address"
        },
        {
          "indexed": false,
          "internalType": "string",
          "name": "bookIpfsHash",
          "type": "string"
        },
        {
          "indexed": false,
          "internalType": "address payable",
          "name": "currentOwner",
          "type": "address"
        },
        {
          "indexed": false,
          "internalType": "bool",
          "name": "avail",
          "type": "bool"
        }
      ],
      "name": "BookAdded",
      "type": "event"
    },
    {
      "anonymous": false,
      "inputs": [
        {
          "indexed": false,
          "internalType": "uint256",
          "name": "bookID",
          "type": "uint256"
        },
        {
          "indexed": false,
          "internalType": "string",
          "name": "name",
          "type": "string"
        },
        {
          "indexed": false,
          "internalType": "string",
          "name": "author",
          "type": "string"
        },
        {
          "indexed": false,
          "internalType": "string",
          "name": "bookIpfsHash",
          "type": "string"
        },
        {
          "indexed": false,
          "internalType": "address payable",
          "name": "ownedBy",
          "type": "address"
        }
      ],
      "name": "ownedBook",
      "type": "event"
    },
    {
      "constant": true,
      "inputs": [
        {
          "internalType": "uint256",
          "name": "",
          "type": "uint256"
        }
      ],
      "name": "allBooksAvailable",
      "outputs": [
        {
          "internalType": "uint256",
          "name": "bookID",
          "type": "uint256"
        },
        {
          "internalType": "string",
          "name": "name",
          "type": "string"
        },
        {
          "internalType": "string",
          "name": "author",
          "type": "string"
        },
        {
          "internalType": "address payable",
          "name": "uploader",
          "type": "address"
        },
        {
          "internalType": "string",
          "name": "bookIpfsHash",
          "type": "string"
        },
        {
          "internalType": "address payable",
          "name": "currentOwner",
          "type": "address"
        },
        {
          "internalType": "bool",
          "name": "avail",
          "type": "bool"
        }
      ],
      "payable": false,
      "stateMutability": "view",
      "type": "function"
    },
    {
      "constant": true,
      "inputs": [
        {
          "internalType": "uint256",
          "name": "",
          "type": "uint256"
        }
      ],
      "name": "allBooksRented",
      "outputs": [
        {
          "internalType": "uint256",
          "name": "bookID",
          "type": "uint256"
        },
        {
          "internalType": "string",
          "name": "name",
          "type": "string"
        },
        {
          "internalType": "string",
          "name": "author",
          "type": "string"
        },
        {
          "internalType": "address payable",
          "name": "uploader",
          "type": "address"
        },
        {
          "internalType": "string",
          "name": "bookIpfsHash",
          "type": "string"
        },
        {
          "internalType": "address payable",
          "name": "currentOwner",
          "type": "address"
        },
        {
          "internalType": "bool",
          "name": "avail",
          "type": "bool"
        }
      ],
      "payable": false,
      "stateMutability": "view",
      "type": "function"
    },
    {
      "constant": true,
      "inputs": [],
      "name": "currentUser",
      "outputs": [
        {
          "internalType": "address payable",
          "name": "",
          "type": "address"
        }
      ],
      "payable": false,
      "stateMutability": "view",
      "type": "function"
    },
    {
      "constant": true,
      "inputs": [],
      "name": "numOfBooks",
      "outputs": [
        {
          "internalType": "uint256",
          "name": "",
          "type": "uint256"
        }
      ],
      "payable": false,
      "stateMutability": "view",
      "type": "function"
    },
    {
      "constant": true,
      "inputs": [],
      "name": "numOfRentedBooks",
      "outputs": [
        {
          "internalType": "uint256",
          "name": "",
          "type": "uint256"
        }
      ],
      "payable": false,
      "stateMutability": "view",
      "type": "function"
    },
    {
      "constant": false,
      "inputs": [
        {
          "internalType": "string",
          "name": "_name",
          "type": "string"
        },
        {
          "internalType": "string",
          "name": "_author",
          "type": "string"
        },
        {
          "internalType": "address payable",
          "name": "_uploader",
          "type": "address"
        },
        {
          "internalType": "string",
          "name": "_bookIpfsHash",
          "type": "string"
        }
      ],
      "name": "addBook",
      "outputs": [],
      "payable": false,
      "stateMutability": "nonpayable",
      "type": "function"
    },
    {
      "constant": false,
      "inputs": [
        {
          "internalType": "uint256",
          "name": "_bookID",
          "type": "uint256"
        }
      ],
      "name": "borrowBook",
      "outputs": [],
      "payable": false,
      "stateMutability": "nonpayable",
      "type": "function"
    }
  ],
  "bytecode": "0x608060405260008055600060015533600460006101000a81548173ffffffffffffffffffffffffffffffffffffffff021916908373ffffffffffffffffffffffffffffffffffffffff16021790555034801561005a57600080fd5b506117f98061006a6000396000f3fe608060405234801561001057600080fd5b506004361061007d5760003560e01c80637e490a9e1161005b5780637e490a9e146102b557806392ee0334146102e3578063abc5545e1461032d578063b97f19bb146105365761007d565b806310d3991f14610082578063222ab3b7146100a05780634c6f559714610297575b600080fd5b61008a61072d565b6040518082815260200191505060405180910390f35b6100cc600480360360208110156100b657600080fd5b8101908080359060200190929190505050610733565b6040518088815260200180602001806020018773ffffffffffffffffffffffffffffffffffffffff1673ffffffffffffffffffffffffffffffffffffffff168152602001806020018673ffffffffffffffffffffffffffffffffffffffff1673ffffffffffffffffffffffffffffffffffffffff1681526020018515151515815260200184810384528a818151815260200191508051906020019080838360005b8381101561018857808201518184015260208101905061016d565b50505050905090810190601f1680156101b55780820380516001836020036101000a031916815260200191505b50848103835289818151815260200191508051906020019080838360005b838110156101ee5780820151818401526020810190506101d3565b50505050905090810190601f16801561021b5780820380516001836020036101000a031916815260200191505b50848103825287818151815260200191508051906020019080838360005b83811015610254578082015181840152602081019050610239565b50505050905090810190601f1680156102815780820380516001836020036101000a031916815260200191505b509a505050505050505050505060405180910390f35b61029f61098a565b6040518082815260200191505060405180910390f35b6102e1600480360360208110156102cb57600080fd5b8101908080359060200190929190505050610990565b005b6102eb611065565b604051808273ffffffffffffffffffffffffffffffffffffffff1673ffffffffffffffffffffffffffffffffffffffff16815260200191505060405180910390f35b6105346004803603608081101561034357600080fd5b810190808035906020019064010000000081111561036057600080fd5b82018360208201111561037257600080fd5b8035906020019184600183028401116401000000008311171561039457600080fd5b91908080601f016020809104026020016040519081016040528093929190818152602001838380828437600081840152601f19601f820116905080830192505050505050509192919290803590602001906401000000008111156103f757600080fd5b82018360208201111561040957600080fd5b8035906020019184600183028401116401000000008311171561042b57600080fd5b91908080601f016020809104026020016040519081016040528093929190818152602001838380828437600081840152601f19601f820116905080830192505050505050509192919290803573ffffffffffffffffffffffffffffffffffffffff169060200190929190803590602001906401000000008111156104ae57600080fd5b8201836020820111156104c057600080fd5b803590602001918460018302840111640100000000831117156104e257600080fd5b91908080601f016020809104026020016040519081016040528093929190818152602001838380828437600081840152601f19601f82011690508083019250505050505050919291929050505061108b565b005b6105626004803603602081101561054c57600080fd5b810190808035906020019092919050505061145d565b6040518088815260200180602001806020018773ffffffffffffffffffffffffffffffffffffffff1673ffffffffffffffffffffffffffffffffffffffff168152602001806020018673ffffffffffffffffffffffffffffffffffffffff1673ffffffffffffffffffffffffffffffffffffffff1681526020018515151515815260200184810384528a818151815260200191508051906020019080838360005b8381101561061e578082015181840152602081019050610603565b50505050905090810190601f16801561064b5780820380516001836020036101000a031916815260200191505b50848103835289818151815260200191508051906020019080838360005b83811015610684578082015181840152602081019050610669565b50505050905090810190601f1680156106b15780820380516001836020036101000a031916815260200191505b50848103825287818151815260200191508051906020019080838360005b838110156106ea5780820151818401526020810190506106cf565b50505050905090810190601f1680156107175780820380516001836020036101000a031916815260200191505b509a505050505050505050505060405180910390f35b60005481565b6003602052806000526040600020600091509050806000015490806001018054600181600116156101000203166002900480601f0160208091040260200160405190810160405280929190818152602001828054600181600116156101000203166002900480156107e55780601f106107ba576101008083540402835291602001916107e5565b820191906000526020600020905b8154815290600101906020018083116107c857829003601f168201915b505050505090806002018054600181600116156101000203166002900480601f0160208091040260200160405190810160405280929190818152602001828054600181600116156101000203166002900480156108835780601f1061085857610100808354040283529160200191610883565b820191906000526020600020905b81548152906001019060200180831161086657829003601f168201915b5050505050908060030160009054906101000a900473ffffffffffffffffffffffffffffffffffffffff1690806004018054600181600116156101000203166002900480601f0160208091040260200160405190810160405280929190818152602001828054600181600116156101000203166002900480156109475780601f1061091c57610100808354040283529160200191610947565b820191906000526020600020905b81548152906001019060200180831161092a57829003601f168201915b5050505050908060050160009054906101000a900473ffffffffffffffffffffffffffffffffffffffff16908060050160149054906101000a900460ff16905087565b60015481565b6001600081548092919060010191905055506109aa6116b4565b81816000018181525050600260008381526020019081526020016000206001018054600181600116156101000203166002900480601f016020809104026020016040519081016040528092919081815260200182805460018160011615610100020316600290048015610a5e5780601f10610a3357610100808354040283529160200191610a5e565b820191906000526020600020905b815481529060010190602001808311610a4157829003601f168201915b50505050508160200181905250600260008381526020019081526020016000206002018054600181600116156101000203166002900480601f016020809104026020016040519081016040528092919081815260200182805460018160011615610100020316600290048015610b155780601f10610aea57610100808354040283529160200191610b15565b820191906000526020600020905b815481529060010190602001808311610af857829003601f168201915b505050505081604001819052506002600083815260200190815260200160002060030160009054906101000a900473ffffffffffffffffffffffffffffffffffffffff16816060019073ffffffffffffffffffffffffffffffffffffffff16908173ffffffffffffffffffffffffffffffffffffffff1681525050600260008381526020019081526020016000206004018054600181600116156101000203166002900480601f016020809104026020016040519081016040528092919081815260200182805460018160011615610100020316600290048015610c3a5780601f10610c0f57610100808354040283529160200191610c3a565b820191906000526020600020905b815481529060010190602001808311610c1d57829003601f168201915b50505050508160800181905250338160a0019073ffffffffffffffffffffffffffffffffffffffff16908173ffffffffffffffffffffffffffffffffffffffff168152505080600360006001548152602001908152602001600020600082015181600001556020820151816001019080519060200190610cbb92919061171f565b506040820151816002019080519060200190610cd892919061171f565b5060608201518160030160006101000a81548173ffffffffffffffffffffffffffffffffffffffff021916908373ffffffffffffffffffffffffffffffffffffffff1602179055506080820151816004019080519060200190610d3c92919061171f565b5060a08201518160050160006101000a81548173ffffffffffffffffffffffffffffffffffffffff021916908373ffffffffffffffffffffffffffffffffffffffff16021790555060c08201518160050160146101000a81548160ff0219169083151502179055509050506000600190505b6000548111610e12578260026000838152602001908152602001600020600001541415610e055760006002600083815260200190815260200160002060050160146101000a81548160ff0219169083151502179055505b8080600101915050610dae565b507fe127f48807270e95a8252e40b97eb71ff03d5007e758e29dad6f730a910675e78260036000600154815260200190815260200160002060010160036000600154815260200190815260200160002060020160036000600154815260200190815260200160002060040133604051808681526020018060200180602001806020018573ffffffffffffffffffffffffffffffffffffffff1673ffffffffffffffffffffffffffffffffffffffff168152602001848103845288818154600181600116156101000203166002900481526020019150805460018160011615610100020316600290048015610f475780601f10610f1c57610100808354040283529160200191610f47565b820191906000526020600020905b815481529060010190602001808311610f2a57829003601f168201915b5050848103835287818154600181600116156101000203166002900481526020019150805460018160011615610100020316600290048015610fca5780601f10610f9f57610100808354040283529160200191610fca565b820191906000526020600020905b815481529060010190602001808311610fad57829003601f168201915b505084810382528681815460018160011615610100020316600290048152602001915080546001816001161561010002031660029004801561104d5780601f106110225761010080835404028352916020019161104d565b820191906000526020600020905b81548152906001019060200180831161103057829003601f168201915b50509850505050505050505060405180910390a15050565b600460009054906101000a900473ffffffffffffffffffffffffffffffffffffffff1681565b600073ffffffffffffffffffffffffffffffffffffffff163373ffffffffffffffffffffffffffffffffffffffff1614156110c557600080fd5b60008081548092919060010191905055506040518060e0016040528060005481526020018581526020018481526020018373ffffffffffffffffffffffffffffffffffffffff168152602001828152602001600073ffffffffffffffffffffffffffffffffffffffff16815260200160011515815250600260008054815260200190815260200160002060008201518160000155602082015181600101908051906020019061117592919061171f565b50604082015181600201908051906020019061119292919061171f565b5060608201518160030160006101000a81548173ffffffffffffffffffffffffffffffffffffffff021916908373ffffffffffffffffffffffffffffffffffffffff16021790555060808201518160040190805190602001906111f692919061171f565b5060a08201518160050160006101000a81548173ffffffffffffffffffffffffffffffffffffffff021916908373ffffffffffffffffffffffffffffffffffffffff16021790555060c08201518160050160146101000a81548160ff0219169083151502179055509050507fcef1ac43f2ac8d9e472704d0580588dde5f21b3671dba0e64453dff0210250d560005485853385600060016040518088815260200180602001806020018773ffffffffffffffffffffffffffffffffffffffff1673ffffffffffffffffffffffffffffffffffffffff168152602001806020018673ffffffffffffffffffffffffffffffffffffffff1673ffffffffffffffffffffffffffffffffffffffff1681526020018515151515815260200184810384528a818151815260200191508051906020019080838360005b8381101561134957808201518184015260208101905061132e565b50505050905090810190601f1680156113765780820380516001836020036101000a031916815260200191505b50848103835289818151815260200191508051906020019080838360005b838110156113af578082015181840152602081019050611394565b50505050905090810190601f1680156113dc5780820380516001836020036101000a031916815260200191505b50848103825287818151815260200191508051906020019080838360005b838110156114155780820151818401526020810190506113fa565b50505050905090810190601f1680156114425780820380516001836020036101000a031916815260200191505b509a505050505050505050505060405180910390a150505050565b6002602052806000526040600020600091509050806000015490806001018054600181600116156101000203166002900480601f01602080910402602001604051908101604052809291908181526020018280546001816001161561010002031660029004801561150f5780601f106114e45761010080835404028352916020019161150f565b820191906000526020600020905b8154815290600101906020018083116114f257829003601f168201915b505050505090806002018054600181600116156101000203166002900480601f0160208091040260200160405190810160405280929190818152602001828054600181600116156101000203166002900480156115ad5780601f10611582576101008083540402835291602001916115ad565b820191906000526020600020905b81548152906001019060200180831161159057829003601f168201915b5050505050908060030160009054906101000a900473ffffffffffffffffffffffffffffffffffffffff1690806004018054600181600116156101000203166002900480601f0160208091040260200160405190810160405280929190818152602001828054600181600116156101000203166002900480156116715780601f1061164657610100808354040283529160200191611671565b820191906000526020600020905b81548152906001019060200180831161165457829003601f168201915b5050505050908060050160009054906101000a900473ffffffffffffffffffffffffffffffffffffffff16908060050160149054906101000a900460ff16905087565b6040518060e00160405280600081526020016060815260200160608152602001600073ffffffffffffffffffffffffffffffffffffffff16815260200160608152602001600073ffffffffffffffffffffffffffffffffffffffff1681526020016000151581525090565b828054600181600116156101000203166002900490600052602060002090601f016020900481019282601f1061176057805160ff191683800117855561178e565b8280016001018555821561178e579182015b8281111561178d578251825591602001919060010190611772565b5b50905061179b919061179f565b5090565b6117c191905b808211156117bd5760008160009055506001016117a5565b5090565b9056fea265627a7a723158205b7d2a89c9cd8aaa0a80e92864f0519328c9c9a3bdd55ec4fe2d29704f04c8ed64736f6c63430005100032",
  "source": "pragma solidity ^0.5.0;\r\n\r\ncontract DLibrary {\r\n \r\n  \r\n    struct Book{\r\n        uint bookID;\r\n        string name;\r\n        string author;\r\n        address payable uploader;\r\n        string bookIpfsHash;\r\n        address payable currentOwner;\r\n        bool avail;       // If it is available at the moment\r\n      \r\n    }\r\n    \r\n    uint public numOfBooks = 0;\r\n    uint public numOfRentedBooks = 0;\r\n    mapping(uint => Book) public allBooksAvailable;\r\n    mapping(uint => Book) public allBooksRented;\r\n    \r\n    address payable public currentUser = msg.sender;\r\n    \r\n   \r\n\r\n  event BookAdded(\r\n    uint bookID,\r\n   string name,\r\n   string author,\r\n   address payable uploader,\r\n   string bookIpfsHash,\r\n   address payable currentOwner,\r\n   bool avail\r\n  );\r\n    \r\n    function addBook(string memory _name,string memory _author,address payable _uploader,string memory _bookIpfsHash) public{\r\n        require(msg.sender!=address(0));  // msg.sender is the one adding a book\r\n       numOfBooks++;\r\n       allBooksAvailable[numOfBooks]=Book(numOfBooks,_name,_author,_uploader,_bookIpfsHash,address(0),true);\r\n        \r\n        emit BookAdded(numOfBooks,_name,_author,msg.sender,_bookIpfsHash,address(0),true);\r\n    \r\n    }\r\n    \r\n    event ownedBook(\r\n     uint bookID,\r\n     string name,\r\n     string author,\r\n     string bookIpfsHash,\r\n     address payable ownedBy\r\n        );\r\n    function borrowBook(uint _bookID)public {\r\n  \r\n        numOfRentedBooks++;\r\n  \r\n         // numOfBooks--;\r\n         //   rentedBooks[currentUser.numOfPossessions] = allBooksAvailable[_bookID];\r\n            Book memory rentedBook;\r\n            rentedBook.bookID=_bookID;\r\n            rentedBook.name=allBooksAvailable[_bookID].name;\r\n            rentedBook.author=allBooksAvailable[_bookID].author;\r\n            rentedBook.uploader=allBooksAvailable[_bookID].uploader;\r\n            rentedBook.bookIpfsHash=allBooksAvailable[_bookID].bookIpfsHash;\r\n            rentedBook.currentOwner=msg.sender;\r\n        //    rentedBook.avail=false;\r\n            \r\n            allBooksRented[numOfRentedBooks] = rentedBook;\r\n  \r\n        \r\n        for(uint i=1;i<=numOfBooks;i++){\r\n            if(allBooksAvailable[i].bookID==_bookID){\r\n                allBooksAvailable[i].avail=false;\r\n               // delete(allBooksAvailable[i]);\r\n               // break;\r\n            }\r\n        }\r\n       \r\n        emit ownedBook(_bookID,allBooksRented[numOfRentedBooks].name,\r\n      allBooksRented[numOfRentedBooks].author,allBooksRented[numOfRentedBooks].bookIpfsHash,msg.sender);\r\n        \r\n  \r\n    }\r\n    \r\n    \r\n    \r\n   \r\n    \r\n    \r\n   \r\n \r\n}",
  "sourcePath": "C:/Users/anamx/DLibrary/src/contracts/DLibrary.sol",
  "compiler": {
    "name": "solc",
    "version": "0.5.16+commit.9c3226ce.Emscripten.clang"
  },
  "schemaVersion": "3.3.4",
  "updatedAt": "2021-04-12T14:39:29.085Z",
  "networkType": "ethereum",
  "devdoc": {
    "methods": {}
  },
  "userdoc": {
    "methods": {}
  }
}